{
  "contractName": "Election",
  "abi": [
    {
      "inputs": [],
      "payable": false,
      "stateMutability": "nonpayable",
      "type": "constructor"
    },
    {
      "anonymous": false,
      "inputs": [
        {
          "indexed": false,
          "internalType": "address",
          "name": "_voterAddress",
          "type": "address"
        }
      ],
      "name": "voteCasted",
      "type": "event"
    },
    {
      "anonymous": false,
      "inputs": [
        {
          "indexed": false,
          "internalType": "address",
          "name": "_voterAddress",
          "type": "address"
        }
      ],
      "name": "voterRegistered",
      "type": "event"
    },
    {
      "constant": true,
      "inputs": [],
      "name": "admin",
      "outputs": [
        {
          "internalType": "address",
          "name": "",
          "type": "address"
        }
      ],
      "payable": false,
      "stateMutability": "view",
      "type": "function"
    },
    {
      "constant": true,
      "inputs": [
        {
          "internalType": "uint256",
          "name": "",
          "type": "uint256"
        }
      ],
      "name": "candidates",
      "outputs": [
        {
          "internalType": "uint256",
          "name": "candidateId",
          "type": "uint256"
        },
        {
          "internalType": "string",
          "name": "name",
          "type": "string"
        }
      ],
      "payable": false,
      "stateMutability": "view",
      "type": "function"
    },
    {
      "constant": true,
      "inputs": [],
      "name": "candidatesCount",
      "outputs": [
        {
          "internalType": "uint256",
          "name": "",
          "type": "uint256"
        }
      ],
      "payable": false,
      "stateMutability": "view",
      "type": "function"
    },
    {
      "constant": true,
      "inputs": [],
      "name": "endTime",
      "outputs": [
        {
          "internalType": "uint256",
          "name": "",
          "type": "uint256"
        }
      ],
      "payable": false,
      "stateMutability": "view",
      "type": "function"
    },
    {
      "constant": true,
      "inputs": [],
      "name": "startTime",
      "outputs": [
        {
          "internalType": "uint256",
          "name": "",
          "type": "uint256"
        }
      ],
      "payable": false,
      "stateMutability": "view",
      "type": "function"
    },
    {
      "constant": true,
      "inputs": [],
      "name": "topic",
      "outputs": [
        {
          "internalType": "string",
          "name": "",
          "type": "string"
        }
      ],
      "payable": false,
      "stateMutability": "view",
      "type": "function"
    },
    {
      "constant": true,
      "inputs": [
        {
          "internalType": "address",
          "name": "",
          "type": "address"
        }
      ],
      "name": "voters",
      "outputs": [
        {
          "internalType": "address",
          "name": "voterAddress",
          "type": "address"
        },
        {
          "internalType": "string",
          "name": "name",
          "type": "string"
        },
        {
          "internalType": "bool",
          "name": "voted",
          "type": "bool"
        },
        {
          "internalType": "bool",
          "name": "registered",
          "type": "bool"
        },
        {
          "internalType": "uint256",
          "name": "candidateId",
          "type": "uint256"
        }
      ],
      "payable": false,
      "stateMutability": "view",
      "type": "function"
    },
    {
      "constant": true,
      "inputs": [],
      "name": "votersCount",
      "outputs": [
        {
          "internalType": "uint256",
          "name": "",
          "type": "uint256"
        }
      ],
      "payable": false,
      "stateMutability": "view",
      "type": "function"
    },
    {
      "constant": true,
      "inputs": [],
      "name": "timestamp",
      "outputs": [
        {
          "internalType": "uint256",
          "name": "",
          "type": "uint256"
        }
      ],
      "payable": false,
      "stateMutability": "view",
      "type": "function"
    },
    {
      "constant": true,
      "inputs": [],
      "name": "getCurrentVoter",
      "outputs": [
        {
          "internalType": "address",
          "name": "",
          "type": "address"
        },
        {
          "internalType": "string",
          "name": "",
          "type": "string"
        },
        {
          "internalType": "bool",
          "name": "",
          "type": "bool"
        },
        {
          "internalType": "bool",
          "name": "",
          "type": "bool"
        },
        {
          "internalType": "uint256",
          "name": "",
          "type": "uint256"
        }
      ],
      "payable": false,
      "stateMutability": "view",
      "type": "function"
    },
    {
      "constant": false,
      "inputs": [
        {
          "internalType": "string",
          "name": "_name",
          "type": "string"
        }
      ],
      "name": "addVoter",
      "outputs": [],
      "payable": false,
      "stateMutability": "nonpayable",
      "type": "function"
    },
    {
      "constant": false,
      "inputs": [
        {
          "internalType": "uint256",
          "name": "_candidateId",
          "type": "uint256"
        }
      ],
      "name": "vote",
      "outputs": [],
      "payable": false,
      "stateMutability": "nonpayable",
      "type": "function"
    },
    {
      "constant": true,
      "inputs": [
        {
          "internalType": "uint256",
          "name": "_candidateId",
          "type": "uint256"
        }
      ],
      "name": "getVoteCountFor",
      "outputs": [
        {
          "internalType": "uint256",
          "name": "",
          "type": "uint256"
        },
        {
          "internalType": "string",
          "name": "",
          "type": "string"
        }
      ],
      "payable": false,
      "stateMutability": "view",
      "type": "function"
    },
    {
      "constant": true,
      "inputs": [],
      "name": "getWinningCandidate",
      "outputs": [
        {
          "internalType": "uint256",
          "name": "",
          "type": "uint256"
        },
        {
          "internalType": "string",
          "name": "",
          "type": "string"
        },
        {
          "internalType": "uint256",
          "name": "",
          "type": "uint256"
        }
      ],
      "payable": false,
      "stateMutability": "view",
      "type": "function"
    }
  ],
  "bytecode": "0x60806040523480156200001157600080fd5b50336000806101000a81548173ffffffffffffffffffffffffffffffffffffffff021916908373ffffffffffffffffffffffffffffffffffffffff1602179055504260028190555061038460025401600381905550604051806060016040528060278152602001620016fe602791396001908051906020019062000097929190620002d2565b506040518060400160405280600181526020016040518060400160405280600881526020017f436f6e677265737300000000000000000000000000000000000000000000000081525081525060066000600181526020019081526020016000206000820151816000015560208201518160010190805190602001906200011f92919062000359565b509050506040518060400160405280600281526020016040518060400160405280600381526020017f424a5000000000000000000000000000000000000000000000000000000000008152508152506006600060028152602001908152602001600020600082015181600001556020820151816001019080519060200190620001aa92919062000359565b509050506040518060400160405280600381526020016040518060400160405280600381526020017f414150000000000000000000000000000000000000000000000000000000000081525081525060066000600381526020019081526020016000206000820151816000015560208201518160010190805190602001906200023592919062000359565b509050506040518060400160405280600481526020016040518060400160405280600381526020017f4e435000000000000000000000000000000000000000000000000000000000008152508152506006600060048152602001908152602001600020600082015181600001556020820151816001019080519060200190620002c092919062000359565b50905050600460058190555062000408565b828054600181600116156101000203166002900490600052602060002090601f016020900481019282601f106200031557805160ff191683800117855562000346565b8280016001018555821562000346579182015b828111156200034557825182559160200191906001019062000328565b5b509050620003559190620003e0565b5090565b828054600181600116156101000203166002900490600052602060002090601f016020900481019282601f106200039c57805160ff1916838001178555620003cd565b82800160010185558215620003cd579182015b82811115620003cc578251825591602001919060010190620003af565b5b509050620003dc9190620003e0565b5090565b6200040591905b8082111562000401576000816000905550600101620003e7565b5090565b90565b6112e680620004186000396000f3fe608060405234801561001057600080fd5b50600436106100ea5760003560e01c806398c079381161008c578063b80777ea11610066578063b80777ea1461058c578063bf63a577146105aa578063f851a4401461062d578063f927cc2914610677576100ea565b806398c07938146103a6578063a3ec138d146103c4578063aca84892146104d1576100ea565b80633477ee2e116100c85780633477ee2e14610159578063650e4b031461020757806378e97925146102da5780638dc2755c146102f8576100ea565b80630121b93f146100ef5780632d35a8a21461011d5780633197cbb61461013b575b600080fd5b61011b6004803603602081101561010557600080fd5b8101908080359060200190929190505050610708565b005b6101256108f4565b6040518082815260200191505060405180910390f35b6101436108fa565b6040518082815260200191505060405180910390f35b6101856004803603602081101561016f57600080fd5b8101908080359060200190929190505050610900565b6040518083815260200180602001828103825283818151815260200191508051906020019080838360005b838110156101cb5780820151818401526020810190506101b0565b50505050905090810190601f1680156101f85780820380516001836020036101000a031916815260200191505b50935050505060405180910390f35b61020f6109bc565b604051808673ffffffffffffffffffffffffffffffffffffffff1673ffffffffffffffffffffffffffffffffffffffff168152602001806020018515151515815260200184151515158152602001838152602001828103825286818151815260200191508051906020019080838360005b8381101561029b578082015181840152602081019050610280565b50505050905090810190601f1680156102c85780820380516001836020036101000a031916815260200191505b50965050505050505060405180910390f35b6102e2610b7f565b6040518082815260200191505060405180910390f35b6103246004803603602081101561030e57600080fd5b8101908080359060200190929190505050610b85565b6040518083815260200180602001828103825283818151815260200191508051906020019080838360005b8381101561036a57808201518184015260208101905061034f565b50505050905090810190601f1680156103975780820380516001836020036101000a031916815260200191505b50935050505060405180910390f35b6103ae610c58565b6040518082815260200191505060405180910390f35b610406600480360360208110156103da57600080fd5b81019080803573ffffffffffffffffffffffffffffffffffffffff169060200190929190505050610c5e565b604051808673ffffffffffffffffffffffffffffffffffffffff1673ffffffffffffffffffffffffffffffffffffffff168152602001806020018515151515815260200184151515158152602001838152602001828103825286818151815260200191508051906020019080838360005b83811015610492578082015181840152602081019050610477565b50505050905090810190601f1680156104bf5780820380516001836020036101000a031916815260200191505b50965050505050505060405180910390f35b61058a600480360360208110156104e757600080fd5b810190808035906020019064010000000081111561050457600080fd5b82018360208201111561051657600080fd5b8035906020019184600183028401116401000000008311171561053857600080fd5b91908080601f016020809104026020016040519081016040528093929190818152602001838380828437600081840152601f19601f820116905080830192505050505050509192919290505050610d66565b005b610594610fd5565b6040518082815260200191505060405180910390f35b6105b2610fdd565b6040518080602001828103825283818151815260200191508051906020019080838360005b838110156105f25780820151818401526020810190506105d7565b50505050905090810190601f16801561061f5780820380516001836020036101000a031916815260200191505b509250505060405180910390f35b61063561107b565b604051808273ffffffffffffffffffffffffffffffffffffffff1673ffffffffffffffffffffffffffffffffffffffff16815260200191505060405180910390f35b61067f6110a0565b6040518084815260200180602001838152602001828103825284818151815260200191508051906020019080838360005b838110156106cb5780820151818401526020810190506106b0565b50505050905090810190601f1680156106f85780820380516001836020036101000a031916815260200191505b5094505050505060405180910390f35b600860003373ffffffffffffffffffffffffffffffffffffffff1673ffffffffffffffffffffffffffffffffffffffff16815260200190815260200160002060020160019054906101000a900460ff1661076157600080fd5b600354421061076f57600080fd5b600860003373ffffffffffffffffffffffffffffffffffffffff1673ffffffffffffffffffffffffffffffffffffffff16815260200190815260200160002060020160009054906101000a900460ff16156107c957600080fd5b60046000828152602001908152602001600020600081548092919060010191905055506001600860003373ffffffffffffffffffffffffffffffffffffffff1673ffffffffffffffffffffffffffffffffffffffff16815260200190815260200160002060020160006101000a81548160ff02191690831515021790555080600860003373ffffffffffffffffffffffffffffffffffffffff1673ffffffffffffffffffffffffffffffffffffffff168152602001908152602001600020600301819055507f7fe1f3a58eee874cedc684b4668fe1a8e0762aba9fb2f44a7205c15d6a04a95c33604051808273ffffffffffffffffffffffffffffffffffffffff1673ffffffffffffffffffffffffffffffffffffffff16815260200191505060405180910390a150565b60055481565b60035481565b6006602052806000526040600020600091509050806000015490806001018054600181600116156101000203166002900480601f0160208091040260200160405190810160405280929190818152602001828054600181600116156101000203166002900480156109b25780601f10610987576101008083540402835291602001916109b2565b820191906000526020600020905b81548152906001019060200180831161099557829003601f168201915b5050505050905082565b6000606060008060006109cd6111c3565b600860003373ffffffffffffffffffffffffffffffffffffffff1673ffffffffffffffffffffffffffffffffffffffff1681526020019081526020016000206040518060a00160405290816000820160009054906101000a900473ffffffffffffffffffffffffffffffffffffffff1673ffffffffffffffffffffffffffffffffffffffff1673ffffffffffffffffffffffffffffffffffffffff168152602001600182018054600181600116156101000203166002900480601f016020809104026020016040519081016040528092919081815260200182805460018160011615610100020316600290048015610b065780601f10610adb57610100808354040283529160200191610b06565b820191906000526020600020905b815481529060010190602001808311610ae957829003601f168201915b505050505081526020016002820160009054906101000a900460ff161515151581526020016002820160019054906101000a900460ff1615151515815260200160038201548152505090508060000151816020015182604001518360600151846080015183935095509550955095509550509091929394565b60025481565b60006060600460008481526020019081526020016000205460066000858152602001908152602001600020600101808054600181600116156101000203166002900480601f016020809104026020016040519081016040528092919081815260200182805460018160011615610100020316600290048015610c485780601f10610c1d57610100808354040283529160200191610c48565b820191906000526020600020905b815481529060010190602001808311610c2b57829003601f168201915b5050505050905091509150915091565b60075481565b60086020528060005260406000206000915090508060000160009054906101000a900473ffffffffffffffffffffffffffffffffffffffff1690806001018054600181600116156101000203166002900480601f016020809104026020016040519081016040528092919081815260200182805460018160011615610100020316600290048015610d305780601f10610d0557610100808354040283529160200191610d30565b820191906000526020600020905b815481529060010190602001808311610d1357829003601f168201915b5050505050908060020160009054906101000a900460ff16908060020160019054906101000a900460ff16908060030154905085565b600860003373ffffffffffffffffffffffffffffffffffffffff1673ffffffffffffffffffffffffffffffffffffffff16815260200190815260200160002060020160019054906101000a900460ff1615610e29576040517f08c379a00000000000000000000000000000000000000000000000000000000081526004018080602001828103825260198152602001807f596f7527766520616c726561647920726567697374657265640000000000000081525060200191505060405180910390fd5b6007600081548092919060010191905055506040518060a001604052803373ffffffffffffffffffffffffffffffffffffffff1681526020018281526020016000151581526020016001151581526020016000815250600860003373ffffffffffffffffffffffffffffffffffffffff1673ffffffffffffffffffffffffffffffffffffffff16815260200190815260200160002060008201518160000160006101000a81548173ffffffffffffffffffffffffffffffffffffffff021916908373ffffffffffffffffffffffffffffffffffffffff1602179055506020820151816001019080519060200190610f2192919061120c565b5060408201518160020160006101000a81548160ff02191690831515021790555060608201518160020160016101000a81548160ff021916908315150217905550608082015181600301559050507f387e3d20b36ce3254acb134e913909d19062c2c475ffa1734569bc795869da1033604051808273ffffffffffffffffffffffffffffffffffffffff1673ffffffffffffffffffffffffffffffffffffffff16815260200191505060405180910390a150565b600042905090565b60018054600181600116156101000203166002900480601f0160208091040260200160405190810160405280929190818152602001828054600181600116156101000203166002900480156110735780601f1061104857610100808354040283529160200191611073565b820191906000526020600020905b81548152906001019060200180831161105657829003601f168201915b505050505081565b6000809054906101000a900473ffffffffffffffffffffffffffffffffffffffff1681565b6000606060008060009050600080905060008090505b60055481116111015760046000828152602001908152602001600020548310156110f457600460008281526020019081526020016000205492508091505b80806001019150506110b6565b50806006600083815260200190815260200160002060010183818054600181600116156101000203166002900480601f0160208091040260200160405190810160405280929190818152602001828054600181600116156101000203166002900480156111af5780601f10611184576101008083540402835291602001916111af565b820191906000526020600020905b81548152906001019060200180831161119257829003601f168201915b505050505091509450945094505050909192565b6040518060a00160405280600073ffffffffffffffffffffffffffffffffffffffff16815260200160608152602001600015158152602001600015158152602001600081525090565b828054600181600116156101000203166002900490600052602060002090601f016020900481019282601f1061124d57805160ff191683800117855561127b565b8280016001018555821561127b579182015b8281111561127a57825182559160200191906001019061125f565b5b509050611288919061128c565b5090565b6112ae91905b808211156112aa576000816000905550600101611292565b5090565b9056fea265627a7a72315820c1539fe62322f35c418fcd6583ccb83be660c03c495038844d3f8f17d4ad7dc264736f6c6343000510003257686f2073686f756c6420626520746865205072696d65204d696e69737465722832303139293f",
  "source": "// SPDX-License-Identifier: MIT\r\n\r\npragma solidity >=0.4.21 <0.9.0;\r\n\r\ncontract Election {\r\n    address public admin;\r\n    string public topic;\r\n    uint256 public startTime;\r\n    uint256 public endTime;\r\n    struct Candidate {\r\n        uint256 candidateId; // candidateId starts from index 1\r\n        string name;\r\n    }\r\n    mapping(uint256 => uint256) private voteCount;\r\n    uint256 public candidatesCount;\r\n    mapping(uint256 => Candidate) public candidates;\r\n    struct Voter {\r\n        address voterAddress;\r\n        string name;\r\n        bool voted;\r\n        bool registered; // to check if this voter has registered\r\n        uint256 candidateId;\r\n    }\r\n    uint256 public votersCount;\r\n    mapping(address => Voter) public voters;\r\n\r\n    // constructor call\r\n    constructor() public {\r\n        admin = msg.sender;\r\n        startTime = block.timestamp;\r\n        endTime = startTime + 15 minutes;\r\n        topic = \"Who should be the Prime Minister(2019)?\";\r\n        candidates[1] = Candidate(1, \"Congress\");\r\n        candidates[2] = Candidate(2, \"BJP\");\r\n        candidates[3] = Candidate(3, \"AAP\");\r\n        candidates[4] = Candidate(4, \"NCP\");\r\n        candidatesCount = 4;\r\n    }\r\n\r\n    modifier adminOnly() {\r\n        require(admin == msg.sender);\r\n        _; //used inside a modifier to specify when the function should be executed.\r\n    }\r\n\r\n    modifier registeredVotersOnly() {\r\n        require(voters[msg.sender].registered);\r\n        _;\r\n    }\r\n\r\n    modifier withinTimeLimit() {\r\n        require(block.timestamp < endTime);\r\n        _;\r\n    }\r\n\r\n    modifier afterTimeLimit() {\r\n        require(block.timestamp > endTime);\r\n        _;\r\n    }\r\n\r\n    event voterRegistered(address _voterAddress);\r\n\r\n    event voteCasted(address _voterAddress);\r\n\r\n    function timestamp() external view returns (uint256) {\r\n        return block.timestamp;\r\n    }\r\n\r\n    function getCurrentVoter()\r\n        public\r\n        view\r\n        returns (\r\n            address,\r\n            string memory,\r\n            bool,\r\n            bool,\r\n            uint256\r\n        )\r\n    {\r\n        Voter memory voter = voters[msg.sender];\r\n        return (\r\n            voter.voterAddress,\r\n            voter.name,\r\n            voter.voted,\r\n            voter.registered,\r\n            voter.candidateId\r\n        );\r\n    }\r\n\r\n    function addVoter(string memory _name) public {\r\n        require(!voters[msg.sender].registered, \"You've already registered\");\r\n        votersCount++;\r\n        voters[msg.sender] = Voter(msg.sender, _name, false, true, 0);\r\n        emit voterRegistered(msg.sender);\r\n    }\r\n\r\n    // main voting function takes your selected candidate id and increments their vote count\r\n    function vote(uint256 _candidateId)\r\n        public\r\n        registeredVotersOnly\r\n        withinTimeLimit\r\n    {\r\n        require(!voters[msg.sender].voted);\r\n        voteCount[_candidateId]++;\r\n        voters[msg.sender].voted = true;\r\n        voters[msg.sender].candidateId = _candidateId;\r\n        emit voteCasted(msg.sender);\r\n    }\r\n\r\n    function getVoteCountFor(uint256 _candidateId)\r\n        external\r\n        view\r\n        returns (uint256, string memory)\r\n    {\r\n        return (voteCount[_candidateId], candidates[_candidateId].name);\r\n    }\r\n\r\n    // returns (id, name, voteCount) of the winning candidate\r\n    function getWinningCandidate()\r\n        external\r\n        view\r\n        returns (\r\n            uint256,\r\n            string memory,\r\n            uint256\r\n        )\r\n    {\r\n        uint256 maxVote = 0;\r\n        uint256 maxVoteCandidateId = 0;\r\n        for (uint256 i = 0; i <= candidatesCount; i++) {\r\n            if (maxVote < voteCount[i]) {\r\n                maxVote = voteCount[i];\r\n                maxVoteCandidateId = i;\r\n            }\r\n        }\r\n        return (\r\n            maxVoteCandidateId,\r\n            candidates[maxVoteCandidateId].name,\r\n            maxVote\r\n        );\r\n    }\r\n}\r\n",
  "sourcePath": "C:\\Users\\User\\Downloads\\blockVoteSP\\blockVoteSP\\contracts\\Election.sol",
  "compiler": {
    "name": "solc",
    "version": "0.5.16+commit.9c3226ce.Emscripten.clang"
  },
  "schemaVersion": "3.4.10",
  "updatedAt": "2022-11-24T06:58:35.714Z",
  "networkType": "ethereum",
  "devdoc": {
    "methods": {}
  },
  "userdoc": {
    "methods": {}
  }
}